:100000000C945D000C9485000C9485000C94850084
:100010000C9485000C9485000C9485000C9485004C
:100020000C9485000C9485000C9485000C9485003C
:100030000C9485000C9485000C9485000C9485002C
:100040000C94C8020C9485000C948E020C945302FC
:100050000C9485000C9485000C9485000C9485000C
:100060000C9485000C94850000000007000201003C
:100070000003040600000000000000000000000073
:10008000250028002B0000000000240027002A0083
:10009000040404040404040402020202020203032E
:1000A0000303030301020408102040800102040836
:1000B0001020010204081020120311241FBECFEFEC
:1000C000D8E0DEBFCDBF11E0A0E0B1E0EAE5FDE0A1
:1000D00002C005900D92A434B107D9F721E0A4E441
:1000E000B1E001C01D92A93FB207E1F710E0CDE5F4
:1000F000D0E004C02197FE010E94A506CC35D107AF
:10010000C9F70E944D030C9438060C9400000F931D
:100110001F93CF93DF93FC01A685B7858D01005C0B
:100120001F4FE8018881998101968F739927AD014E
:100130004E5B5F4FEA012881398128173907D1F3D7
:10014000E80128813981A20FB31F6C93A685B7857A
:10015000A05CBF4F11969C938E93A689B7892C9172
:1001600081E090E0078C02C0880F991F0A94E2F7A3
:10017000822B8C9381E081A30488F589E02D808116
:100180008064808381E090E0DF91CF911F910F9197
:100190000895CF93DF936DE087ED91E00E94870093
:1001A000EC016AE087ED91E00E9487008C0F9D1FB3
:1001B000DF91CF910895FC0181A1882329F0A489C2
:1001C000B5898C9186FFFBCF11A20895FC01A4850F
:1001D000B585FD01E05CFF4F208131813296808141
:1001E00091812817390779F080819181A80FB91F73
:1001F0008C91208131812F5F3F4F2F7333273183C3
:10020000208390E008958FEF9FEF0895DC011C9606
:10021000ED91FC911D97DF01A05CBF4F2D913C91AA
:10022000119712968D919C9111972817390739F0E3
:100230008D919C91E80FF91F808190E008958FEFD8
:100240009FEF0895FC0124853585F901E05CFF4F9F
:1002500080819181329620813181821B930B8F7333
:100260009927089587ED91E00C9422010895CF928B
:10027000DF92EF92FF920F931F93CF93DF936C0166
:10028000EB017B01E40EF51E00E010E0CE15DF056A
:1002900061F06991D601ED91FC910190F081E02D22
:1002A000C6010995080F191FF1CFC801DF91CF9141
:1002B0001F910F91FF90EF90DF90CF90089590E005
:1002C000FC01E859FF4F2491FC01EC55FF4F34919C
:1002D000FC01E057FF4FE491EE2309F43CC02223D8
:1002E00039F1233091F038F42130A9F0223001F5B2
:1002F00084B58F7D12C0263091F02730A1F02430D4
:10030000B9F4809180008F7D03C0809180008F7749
:10031000809380000DC084B58F7784BD09C0809123
:10032000B0008F7703C08091B0008F7D8093B000C4
:10033000F0E0EE0FFF1FE458FF4FA591B4919FB777
:10034000F894611104C08C913095382302C0EC916F
:100350003E2B3C939FBF08953FB7F894809149018D
:1003600090914A01A0914B01B0914C0126B5A89BF8
:1003700005C02F3F19F00196A11DB11D3FBFBA2F37
:10038000A92F982F8827820F911DA11DB11DBC0197
:10039000CD0142E0660F771F881F991F4A95D1F75C
:1003A0000895CF92DF92EF92FF92CF93DF936B018C
:1003B0007C010E94AC01EB01C114D104E104F10401
:1003C00079F00E94AC016C1B7D0B683E7340A0F37A
:1003D00081E0C81AD108E108F108C851DC4FECCF20
:1003E000DF91CF91FF90EF90DF90CF9008958F92A3
:1003F0009F92AF92BF92EF92FF920F931F93CF9372
:10040000DF93CDB7DEB7A1970FB6F894DEBF0FBE6E
:10041000CDBF162F042F19A2423008F40AE07E0146
:1004200021E2E20EF11C802E912CA12CB12C612F27
:10043000A50194010E946D06029F1019112481E00C
:10044000E81AF1081A3014F4105D01C0195CF701C4
:100450001083122F732FCA01232B242B252B39F73E
:10046000E114F10469F001900020E9F73197AF0140
:100470004E195F09B70187ED91E00E94370102C074
:1004800080E090E0A1960FB6F894DEBF0FBECDBF1E
:10049000DF91CF911F910F91FF90EF90BF90AF90A0
:1004A0009F908F9008951F920F920FB60F92112474
:1004B0002F933F938F939F93EF93FF9320918F01FF
:1004C0003091900180919101909192012817390704
:1004D00031F48091C1008F7D8093C10014C0E09100
:1004E0009101F0919201E15BFE4F20818091910199
:1004F0009091920101968F73992790939201809326
:1005000091012093C600FF91EF919F918F913F91B0
:100510002F910F900FBE0F901F9018951F920F9262
:100520000FB60F9211242F934F935F938F939F9346
:10053000EF93FF938091C00082FD1CC02091C60004
:100540008091D3019091D4014091D5015091D60171
:1005500001968F7399274817590771F0E091D301DD
:10056000F091D401ED56FE4F20839093D4018093F7
:10057000D30102C08091C600FF91EF919F918F91AE
:100580005F914F912F910F900FBE0F901F90189574
:100590001F920F920FB60F9211242F933F938F93B8
:1005A0009F93AF93BF938091450190914601A09195
:1005B0004701B09148013091440123E0230F2D37CA
:1005C00020F40196A11DB11D05C026E8230F029657
:1005D000A11DB11D209344018093450190934601D4
:1005E000A0934701B09348018091490190914A013D
:1005F000A0914B01B0914C010196A11DB11D8093BA
:10060000490190934A01A0934B01B0934C01BF91D3
:10061000AF919F918F913F912F910F900FBE0F90AF
:100620001F901895E7EDF1E01382128288EE93E0B7
:10063000A0E0B0E084839583A683B7838CE191E04A
:100640009183808383E991E0958784878FE491E0AB
:100650009787868785EC90E0918B808B84EC90E087
:10066000938B828B80EC90E0958B848B81EC90E077
:10067000978B868B82EC90E0918F808F86EC90E058
:10068000938F828F84E0848F83E0858F87E0868FCD
:1006900085E0878F81E080A30895789484B5826097
:1006A00084BD84B5816084BD85B5826085BD85B516
:1006B000816085BD80916E00816080936E00109294
:1006C000810080918100826080938100809181000F
:1006D00081608093810080918000816080938000A0
:1006E0008091B10084608093B1008091B0008160FE
:1006F0008093B00080917A00846080937A0080912A
:100700007A00826080937A0080917A008160809381
:100710007A0080917A00806880937A001092C100FC
:10072000E091EB01F091EC0181E090E09C01009000
:10073000F70102C0220F331F0A94E2F72083E091F1
:10074000E701F091E8011082E091E901F091EA01FE
:100750002FEC20831092F801E091ED01F091EE0171
:1007600040819C010090F30102C0220F331F0A94C4
:10077000E2F7242B2083E091ED01F091EE0140811E
:100780009C010090F40102C0220F331F0A94E2F78B
:10079000242B2083E091ED01F091EE0140819C013A
:1007A0000090F50102C0220F331F0A94E2F7242BB8
:1007B0002083E091ED01F091EE0120810090F6019F
:1007C00002C0880F991F0A94E2F7809582238083E4
:1007D0004BE150E068E271E087ED91E00E94370163
:1007E0000E94C90028E131E0A8E0B1E08D919D911F
:1007F0009927FC01EC55FF4F4491FC01E057FF4F56
:100800008491882399F090E0880F991FFC01EA57A2
:10081000FF4FC591D491FC01E458FF4F859194910D
:100820008FB7F894E881E42BE8838FBF2A173B0742
:10083000E9F610E410937C0080917A008064809344
:100840007A0080917A0086FDFCCFA091780080919B
:100850007900B0E0B82B4D010B2E000CAA08BB08A4
:1008600023E030E00E949E062FEF33E040E050E0AE
:100870000E943B0629013A01E90180910201909111
:10088000030128173907F9F06901330FEE08FF0853
:10089000F7FE0EC06DE287ED91E00E9487006627AB
:1008A0007727CB016C197D098E099F094AE003C0A7
:1008B0004AE0C701B6010E94F7010E94C9005092A8
:1008C000030140920201C130D10509F498C034F40B
:1008D000CD2B09F028C1C4E0D0E00CC0C230D10556
:1008E00009F4BFC0239709F01EC1C8E0D1E0E12C94
:1008F000F12CD7C0E0900001F0900101F701EE0F5C
:10090000FF1FE85FFE4FA08061E08A2D0E945F011B
:10091000C0904D01D0904E01F601EE0FFF1FE85F31
:10092000FE4FB08061E08B2D0E945F0160E971E0B5
:1009300080E090E00E94D10160E08A2D0E945F017A
:1009400060E08B2D0E945F0161E070E080E090E04C
:100950000E94D1012FEFC21AD20AD0924E01C0924A
:100960004D0181E0E81AF108F0920101E0920001E6
:10097000219709F0BFCFC4E0D0E0E0900001F090F3
:100980000101F701EE0FFF1FE85FFE4FB08061E04D
:100990008B2D0E945F01C0904D01D0904E01F60159
:1009A000EE0FFF1FE85FFE4FA08061E08A2D0E94DE
:1009B0005F0160E971E080E090E00E94D10160E0B9
:1009C0008A2D0E945F0160E08B2D0E945F0161E033
:1009D00070E080E090E00E94D10121E0C21AD108CD
:1009E000D0924E01C0924D018FEFE81AF80AF092B2
:1009F0000101E0920001219709F0BFCF94C00E944D
:100A0000E1056B017C010E94E10527E030E040E058
:100A100050E00E943B06660F771FFB01E85FFE4F28
:100A2000C08161E08C2F0E945F01C701B60120E9FF
:100A300031E040E050E00E943B066B017C0124E67F
:100A4000C20ED11CE11CF11CC701B6010E94D101EC
:100A500060E08C2F0E945F01C701B6010E94D101A6
:100A600062C0A5019401325041095109A7E0B0E0EC
:100A70000E945A062FEF30E040E050E00E943B0613
:100A8000F22EC8E0D1E060E088810E945F012296EA
:100A900081E0C831D807B9F761E08F2D0E945F016E
:100AA00042C0E0FC15C0D88061E08D2D0E945F013E
:100AB00064EF71E080E090E00E94D10160E08D2D54
:100AC0000E945F0161E070E080E090E00E94D1014F
:100AD0002FEFE21AF20A229688E0E816F10409F7ED
:100AE000C8E0D1E0E12CF12CE0FE15C0D88061E037
:100AF0008D2D0E945F0164EF71E080E090E00E9424
:100B0000D10160E08D2D0E945F0161E070E080E026
:100B100090E00E94D1012FEFE21AF20A229688E0BB
:100B2000E816F10409F70E94320184CE8F929F9259
:100B3000AF92BF92CF92DF92EF92FF92CF93DF936B
:100B4000EC01688179818A819B816115710581053C
:100B5000910521F464E279ED8BE597E02DE133EF27
:100B600041E050E00E943B0649015A019B01AC0163
:100B7000A7EAB1E40E945A066B017C01ACEEB4EF27
:100B8000A50194010E946806DC01CB018C0D9D1D1E
:100B9000AE1DBF1DB7FF03C00197A109B0488883F0
:100BA0009983AA83BB83BC01CD019F77DF91CF914D
:100BB000FF90EF90DF90CF90BF90AF909F908F907D
:100BC00008958F929F92AF92BF92CF92DF92EF9251
:100BD000FF9260910401709105018091060190914E
:100BE0000701611571058105910521F464E279ED34
:100BF0008BE597E02DE133EF41E050E00E943B06AA
:100C000049015A019B01AC01A7EAB1E40E945A06CE
:100C10006B017C01ACEEB4EFA50194010E94680663
:100C2000DC01CB018C0D9D1DAE1DBF1DB7FF03C0A8
:100C30000197A109B0488093040190930501A09306
:100C40000601B0930701BC01CD019F77FF90EF90A3
:100C5000DF90CF90BF90AF909F908F90089560935A
:100C60000401709305018093060190930701089594
:100C7000F8940C94AB06052E97FB1EF400940E948A
:100C8000520657FD07D00E946D0607FC03D04EF4B4
:100C90000C94520650954095309521953F4F4F4FFB
:100CA0005F4F089590958095709561957F4F8F4F18
:100CB0009F4F08950E948F06A59F900DB49F900DA1
:100CC000A49F800D911D11240895B7FF0C945A061E
:100CD0000E945A06821B930B0895A1E21A2EAA1BAA
:100CE000BB1BFD010DC0AA1FBB1FEE1FFF1FA217DC
:100CF000B307E407F50720F0A21BB30BE40BF50BD9
:100D0000661F771F881F991F1A9469F76095709561
:100D1000809590959B01AC01BD01CF010895A29FE4
:100D2000B001B39FC001A39F700D811D1124911DBF
:100D3000B29F700D811D1124911D08950E948F0690
:100D4000B7FF0895821B930B0895EE0FFF1F0590C8
:0A0D5000F491E02D0994F894FFCF10
:100D5A000700FFFF010000000D000C000B000A0055
:100D6A00090008000700060000000000870037019C
:100D7A002201E6000601DB00496E697469616C694B
:100D8A007A696E6720466C6F77696E67204C69676F
:040D9A006874730006
:00000001FF
